:108000008200830F82008417820084178200841705
:1080100082008417820084178200841782008417EC
:1080200082008417820084178200841782008417DC
:108030008200841782008417820084178200826B7A
:1080400082008417820084178200841782008417BC
:1080500082008417820084178200841782008417AC
:10806000820084178200822C820084178200841789
:10807000820084178200841782008417820084178C
:1080800088A6082000887B02887B02891E061F04C0
:108090005F977B086B06FE1F0785848788A60020F4
:1080A0000588A604200088897B04887B04891E0833
:1080B0001F045F977B0A6B061F09FE1F071E095CE2
:1080C0005CFE1F09858487891E06BF001E08BF024B
:1080D000200B891E06BF041E08BF0620001E031FBA
:1080E000071E041F08855B0487725F500235FF502E
:1080F00003725F500435FF500035FF500735FF50C5
:108100000835FF500935FF500535FF500C35FF503D
:108110000D35FF500E35FF500A35FF501135FF5019
:108120001235FF501335EF500F35FF501635FF5005
:108130001735FF501835FF501435FF502035FF50CC
:108140002135FF502235FF501E87B701A40F5F5C19
:108150008D0083D941B702B601A51026193D00272D
:1081600008BC0050C7BA0220083302BC0050C7B494
:1081700002BD0050C7873D002708BC0050CABA02A4
:1081800020083302BC0050CAB402BD0050CA87B7F1
:1081900000A580260A8D0083AFB600A418200EBC6F
:1081A0000050C6A4F8BD0050C6B600A40788BC00A5
:1081B00050C6B70184BA01BD0050C6873501000022
:1081C000A6048D00814AA6018D00837E357D0000C6
:1081D000A6078D0083C58D0083EF8D0082C0A601A8
:1081E000AC00836835010000A6058D00814AA60118
:1081F0008D008352AEC350A6048D0083D08D0083C2
:10820000EF8D0082A5A601AC00833CA6018D008302
:10821000264F8D00818F8D0080E98D0081E48D00D7
:1082200081BC8D0082F58D00840220FE8A84A4BF6B
:1082300088868D00809C8D0080A1A6018D0083FC26
:108240008D0083E18D0080D28D0080C78090AE00CC
:10825000002011931C000389938D00839485928DD7
:108260000005909390A3000026E9878A84A4BF8824
:10827000868D00809C8D0080A15F5C8D0083A28D27
:108280000080D28D0080C7804D260DA656BD0050BF
:1082900062A6AEBD00506287A6AEBD005064A65671
:1082A000BD00506487B7013D002708BC005301BAE8
:1082B0000120083301BC005301B401BD0053018704
:1082C000B7013D002708BC005341BA012008330123
:1082D000BC005341B401BD005341878D00808052E2
:1082E00002BF08BE081F01965C3F01BF02A6018DB8
:1082F00000842520EE8D0083E88D0083E1A6558D56
:10830000008408A6068D00840DA6FFAC008412AE82
:1083100007FF948D00841F5D27048D00824D8D0022
:10832000820BAC00841B4D2708BC0050C0AA012062
:1083300006BC0050C0A4FEBD0050C0874D2708BC3D
:10834000005300AA012006BC005300A4FEBD005348
:1083500000874D2708BC005300AA802006BC0053AC
:1083600000A47FBD005300874D2708BC005340AADE
:10837000012006BC005340A4FEBD005340874D279A
:1083800008BC005340AA802006BC005340A47FBD17
:108390000053408788F6B705E601B706E602B7073F
:1083A00084879F43BD0053029E43BD00530387BC97
:1083B0000050C6A4E7BD0050C6879EBD00530D9F68
:1083C000BD00530E87BD005345B600BD0053468720
:1083D000BD00530C8D0083BA874D2704584A26FCF4
:1083E00087A6AABD0050E087A6CCBD0050E0873527
:1083F000010000A6018789858D0082DB43BD005303
:108400004287A601AC008288BD0050E087BD0050C5
:10841000E187BD0050E287AC008422AC0083F65FA8
:068420005C879D20FD8732
:040000050000830F65
:00000001FF
